{
  "_format": "hh-sol-artifact-1",
  "contractName": "TimeLockInheritance",
  "sourceName": "contracts/TimeLockInheritance.sol",
  "abi": [
    {
      "anonymous": false,
      "inputs": [
        {
          "indexed": true,
          "internalType": "uint256",
          "name": "vaultId",
          "type": "uint256"
        },
        {
          "indexed": false,
          "internalType": "uint256",
          "name": "beneficiaryIndex",
          "type": "uint256"
        }
      ],
      "name": "BeneficiaryAdded",
      "type": "event"
    },
    {
      "anonymous": false,
      "inputs": [
        {
          "indexed": true,
          "internalType": "uint256",
          "name": "vaultId",
          "type": "uint256"
        },
        {
          "indexed": false,
          "internalType": "uint256",
          "name": "timestamp",
          "type": "uint256"
        }
      ],
      "name": "EmergencyUnlock",
      "type": "event"
    },
    {
      "anonymous": false,
      "inputs": [
        {
          "indexed": true,
          "internalType": "uint256",
          "name": "vaultId",
          "type": "uint256"
        },
        {
          "indexed": true,
          "internalType": "address",
          "name": "beneficiary",
          "type": "address"
        },
        {
          "indexed": false,
          "internalType": "uint256",
          "name": "amount",
          "type": "uint256"
        },
        {
          "indexed": false,
          "internalType": "uint256",
          "name": "stage",
          "type": "uint256"
        }
      ],
      "name": "InheritanceClaimed",
      "type": "event"
    },
    {
      "anonymous": false,
      "inputs": [
        {
          "indexed": true,
          "internalType": "uint256",
          "name": "vaultId",
          "type": "uint256"
        },
        {
          "indexed": false,
          "internalType": "uint256",
          "name": "stage",
          "type": "uint256"
        },
        {
          "indexed": false,
          "internalType": "uint256",
          "name": "timestamp",
          "type": "uint256"
        }
      ],
      "name": "StageUnlocked",
      "type": "event"
    },
    {
      "anonymous": false,
      "inputs": [
        {
          "indexed": true,
          "internalType": "uint256",
          "name": "vaultId",
          "type": "uint256"
        },
        {
          "indexed": true,
          "internalType": "address",
          "name": "creator",
          "type": "address"
        },
        {
          "indexed": false,
          "internalType": "uint256",
          "name": "totalAmount",
          "type": "uint256"
        },
        {
          "indexed": false,
          "internalType": "uint256",
          "name": "firstUnlockTime",
          "type": "uint256"
        }
      ],
      "name": "VaultCreated",
      "type": "event"
    },
    {
      "inputs": [],
      "name": "TOTAL_STAGES",
      "outputs": [
        {
          "internalType": "uint256",
          "name": "",
          "type": "uint256"
        }
      ],
      "stateMutability": "view",
      "type": "function"
    },
    {
      "inputs": [],
      "name": "UNLOCK_INTERVAL",
      "outputs": [
        {
          "internalType": "uint256",
          "name": "",
          "type": "uint256"
        }
      ],
      "stateMutability": "view",
      "type": "function"
    },
    {
      "inputs": [
        {
          "internalType": "uint256",
          "name": "vaultId",
          "type": "uint256"
        },
        {
          "internalType": "uint256",
          "name": "beneficiaryIndex",
          "type": "uint256"
        },
        {
          "internalType": "externalEuint128",
          "name": "encryptedAddress",
          "type": "bytes32"
        },
        {
          "internalType": "externalEuint128",
          "name": "encryptedAmount",
          "type": "bytes32"
        },
        {
          "internalType": "bytes",
          "name": "addressProof",
          "type": "bytes"
        },
        {
          "internalType": "bytes",
          "name": "amountProof",
          "type": "bytes"
        }
      ],
      "name": "addBeneficiary",
      "outputs": [],
      "stateMutability": "nonpayable",
      "type": "function"
    },
    {
      "inputs": [
        {
          "internalType": "address",
          "name": "",
          "type": "address"
        },
        {
          "internalType": "uint256",
          "name": "",
          "type": "uint256"
        }
      ],
      "name": "beneficiaryVaults",
      "outputs": [
        {
          "internalType": "uint256",
          "name": "",
          "type": "uint256"
        }
      ],
      "stateMutability": "view",
      "type": "function"
    },
    {
      "inputs": [
        {
          "internalType": "uint256",
          "name": "vaultId",
          "type": "uint256"
        }
      ],
      "name": "checkInheritance",
      "outputs": [
        {
          "internalType": "bool",
          "name": "isBeneficiary",
          "type": "bool"
        },
        {
          "internalType": "uint256",
          "name": "claimableAmount",
          "type": "uint256"
        },
        {
          "internalType": "uint256",
          "name": "totalAmount",
          "type": "uint256"
        }
      ],
      "stateMutability": "view",
      "type": "function"
    },
    {
      "inputs": [
        {
          "internalType": "uint256",
          "name": "vaultId",
          "type": "uint256"
        }
      ],
      "name": "claimInheritance",
      "outputs": [],
      "stateMutability": "nonpayable",
      "type": "function"
    },
    {
      "inputs": [
        {
          "internalType": "uint256",
          "name": "firstUnlockTime",
          "type": "uint256"
        },
        {
          "internalType": "enum TimeLockInheritance.UnlockMode",
          "name": "unlockMode",
          "type": "uint8"
        },
        {
          "internalType": "uint256",
          "name": "beneficiaryCount",
          "type": "uint256"
        }
      ],
      "name": "createVault",
      "outputs": [
        {
          "internalType": "uint256",
          "name": "",
          "type": "uint256"
        }
      ],
      "stateMutability": "payable",
      "type": "function"
    },
    {
      "inputs": [
        {
          "internalType": "address",
          "name": "",
          "type": "address"
        },
        {
          "internalType": "uint256",
          "name": "",
          "type": "uint256"
        }
      ],
      "name": "creatorVaults",
      "outputs": [
        {
          "internalType": "uint256",
          "name": "",
          "type": "uint256"
        }
      ],
      "stateMutability": "view",
      "type": "function"
    },
    {
      "inputs": [
        {
          "internalType": "uint256",
          "name": "vaultId",
          "type": "uint256"
        }
      ],
      "name": "emergencyUnlock",
      "outputs": [],
      "stateMutability": "nonpayable",
      "type": "function"
    },
    {
      "inputs": [
        {
          "internalType": "address",
          "name": "beneficiary",
          "type": "address"
        }
      ],
      "name": "getBeneficiaryVaults",
      "outputs": [
        {
          "internalType": "uint256[]",
          "name": "",
          "type": "uint256[]"
        }
      ],
      "stateMutability": "view",
      "type": "function"
    },
    {
      "inputs": [
        {
          "internalType": "address",
          "name": "creator",
          "type": "address"
        }
      ],
      "name": "getCreatorVaults",
      "outputs": [
        {
          "internalType": "uint256[]",
          "name": "",
          "type": "uint256[]"
        }
      ],
      "stateMutability": "view",
      "type": "function"
    },
    {
      "inputs": [
        {
          "internalType": "uint256",
          "name": "vaultId",
          "type": "uint256"
        },
        {
          "internalType": "uint256",
          "name": "beneficiaryIndex",
          "type": "uint256"
        }
      ],
      "name": "getEncryptedBeneficiary",
      "outputs": [
        {
          "internalType": "euint128",
          "name": "",
          "type": "bytes32"
        },
        {
          "internalType": "euint128",
          "name": "",
          "type": "bytes32"
        }
      ],
      "stateMutability": "view",
      "type": "function"
    },
    {
      "inputs": [
        {
          "internalType": "uint256",
          "name": "vaultId",
          "type": "uint256"
        }
      ],
      "name": "getVault",
      "outputs": [
        {
          "components": [
            {
              "internalType": "uint256",
              "name": "id",
              "type": "uint256"
            },
            {
              "internalType": "address",
              "name": "creator",
              "type": "address"
            },
            {
              "internalType": "uint256",
              "name": "totalAmount",
              "type": "uint256"
            },
            {
              "internalType": "uint256",
              "name": "firstUnlockTime",
              "type": "uint256"
            },
            {
              "internalType": "uint256",
              "name": "stagesUnlocked",
              "type": "uint256"
            },
            {
              "internalType": "bool",
              "name": "emergencyUnlocked",
              "type": "bool"
            },
            {
              "internalType": "bool",
              "name": "isActive",
              "type": "bool"
            },
            {
              "internalType": "uint256",
              "name": "beneficiaryCount",
              "type": "uint256"
            },
            {
              "internalType": "enum TimeLockInheritance.UnlockMode",
              "name": "unlockMode",
              "type": "uint8"
            }
          ],
          "internalType": "struct TimeLockInheritance.Vault",
          "name": "",
          "type": "tuple"
        }
      ],
      "stateMutability": "view",
      "type": "function"
    },
    {
      "inputs": [],
      "name": "protocolId",
      "outputs": [
        {
          "internalType": "uint256",
          "name": "",
          "type": "uint256"
        }
      ],
      "stateMutability": "pure",
      "type": "function"
    },
    {
      "inputs": [],
      "name": "vaultCount",
      "outputs": [
        {
          "internalType": "uint256",
          "name": "",
          "type": "uint256"
        }
      ],
      "stateMutability": "view",
      "type": "function"
    },
    {
      "inputs": [
        {
          "internalType": "uint256",
          "name": "",
          "type": "uint256"
        }
      ],
      "name": "vaults",
      "outputs": [
        {
          "internalType": "uint256",
          "name": "id",
          "type": "uint256"
        },
        {
          "internalType": "address",
          "name": "creator",
          "type": "address"
        },
        {
          "internalType": "uint256",
          "name": "totalAmount",
          "type": "uint256"
        },
        {
          "internalType": "uint256",
          "name": "firstUnlockTime",
          "type": "uint256"
        },
        {
          "internalType": "uint256",
          "name": "stagesUnlocked",
          "type": "uint256"
        },
        {
          "internalType": "bool",
          "name": "emergencyUnlocked",
          "type": "bool"
        },
        {
          "internalType": "bool",
          "name": "isActive",
          "type": "bool"
        },
        {
          "internalType": "uint256",
          "name": "beneficiaryCount",
          "type": "uint256"
        },
        {
          "internalType": "enum TimeLockInheritance.UnlockMode",
          "name": "unlockMode",
          "type": "uint8"
        }
      ],
      "stateMutability": "view",
      "type": "function"
    }
  ],
  "bytecode": "0x608060405234610155576000606061001561015a565b828152826020820152826040820152015261002e61015a565b606073687820221192c5b662b25367f70076a37bc79b6c9182815273848b0066793bcc60346da1f49049357399b8d59580602083015273a02cda4ca3a71d7c46997716f4283aa851c2881291826040820152731364cbbf2cdf5032c47d8226a6f6fbd2afcdacac938491015260018060a01b0319937f9e7b61f58c47dc699ac88507c4f5bb9f121c03808c5676a8078fe583e464970090858254161790557f9e7b61f58c47dc699ac88507c4f5bb9f121c03808c5676a8078fe583e464970190848254161790557f9e7b61f58c47dc699ac88507c4f5bb9f121c03808c5676a8078fe583e464970290838254161790557f9e7b61f58c47dc699ac88507c4f5bb9f121c03808c5676a8078fe583e46497039182541617905560405161148690816101908239f35b600080fd5b60405190608082016001600160401b0381118382101761017957604052565b634e487b7160e01b600052604160045260246000fdfe6040608081526004908136101561001557600080fd5b60009160e0908335821c9182631b0ba81f14610c945782635ce1052114610c745782635ed71a1a14610c03578263674e9ca214610b8a5782637a3d713a14610aaa57826383edc035146108495782638c64ea4a146107af5782639003280c1461072857826392ccb8ff146104615782639403b634146102f257508163a7c6a100146102d4578163ad09f50e1461027e578163b07933131461016f578163da1f12ab14610152578163ddb619ab14610131575063fc544672146100d657600080fd5b3461012d578060031936011261012d576100ee610f0d565b6001600160a01b0316825260026020528082208054602435939084101561012a575060209261011c91610f82565b91905490519160031b1c8152f35b80fd5b5080fd5b9190503461014e578260031936011261014e576020925051908152f35b8280fd5b50503461012d578160031936011261012d57602090516127118152f35b9190503461014e576020908160031936011261027a578235928315158061026f575b61019a90610fb0565b8385528483526101b560ff6005848820015460081c16610ff3565b8385528483526101d460018060a01b0360018488200154163314611035565b83855284835260ff600583872001541661022e5783855284835281852060058101805460ff19166001179055810155514281527f862eb62cb5dc0d1aac2f84766de3f03874904a27029f790fb4d864b5d8f172039190a280f35b82606492519162461bcd60e51b8352820152601a60248201527f416c726561647920656d657267656e637920756e6c6f636b65640000000000006044820152fd5b508054841115610191565b8380fd5b50503461012d578060031936011261012d57610298610f0d565b6001600160a01b0316825260036020528082208054602435939084101561012a57506020926102c691610f82565b90549060031b1c9051908152f35b90503461014e578260031936011261014e5760209250549051908152f35b8385913461014e576020938460031936011261027a578281359481519561031887611075565b818752818888015281838801528160608801528160808801528160a08801528160c08801528185880152816101008098015280151580610456575b61035c90610fb0565b8082528188528282206005015460081c60ff1661037890610ff3565b815280875220948351958694859361038f85611075565b82548552600160a01b600190039182600185015416948087019586526002850154908288019182526003860154936060890194855286015494608089019586526005870154978c60a08b019860ff8b1615158a5260c08c019a60081c60ff1615158b528c60068201549c019b8c526007015460ff169c019b610411908d611156565b84519d518e525116908c015251908a015251606089015251608088015251151560a087015251151560c086015251908401525161045091830190610f5f565b61012090f35b508354811115610353565b8482853461014e576020908160031936011261027a578235918215158061071d575b61048c90610fb0565b8285528481526104a760ff6005848820015460081c16610ff3565b8285528481528185206104b984611324565b80156106e1578582019182549081831190816106d1575b5061066a575b50506104e184611301565b969091156106335786156105fd578588526001845284882082895284526002858920018054908882018092116105ea5755878080808a335af13d156105e5573d61052a816110de565b90610537885192836110bc565b815289863d92013e5b156105b05750907fcba9cb76d4542f04998e2a1ac0eb8c45240ca4ee363b35c80995e7323f6d634a939291858852600183528388209088528252856002848920015414610598575b549082519586528501523393a380f35b338752600382526105ab85848920611162565b610588565b845162461bcd60e51b8152908101849052600f60248201526e151c985b9cd9995c8819985a5b1959608a1b6044820152606490fd5b610540565b634e487b7160e01b8a526011835260248afd5b845162461bcd60e51b8152908101849052601060248201526f4e6f7468696e6720746f20636c61696d60801b6044820152606490fd5b845162461bcd60e51b815290810184905260116024820152704e6f7420612062656e656669636961727960781b6044820152606490fd5b81811061067b5750815586806104d6565b600181018082116106be5790867fc155b0aa6d0b72e4e5701504c39536488da718264fdada9d885e1868f950dd8f8760019481519081524289820152a20161066a565b634e487b7160e01b895260118852602489fd5b60ff9150600501541615896104d0565b835162461bcd60e51b81528087018490526016602482015275139bc81cdd1859d95cc81d5b9b1bd8dad959081e595d60521b6044820152606490fd5b508354831115610483565b5050503461012d57602090602060031936011261014e576001600160a01b0361074f610f0d565b168352600360205280832092815180936020865492838152019583526020832092905b82821061079857610794868661078a828b03836110bc565b5191829182610f23565b0390f35b835487529586019560019384019390910190610772565b9091503461027a57602036600319011261027a57906108479183610120958335815280602052209060ff82549560018060a01b03600185015416946002850154906003860154908601549160058701549385600760068a0154990154169881519b8c5260208c01528a015260608901526080880152818116151560a088015260081c16151560c0860152840152610100830190610f5f565bf35b929150606036600319011261027a5780359260248035916002831015610aa6576044353415610a715742871115610a2f5780156109e257845460001981146109d05790600160079392018087558751926108a284611075565b8184528a602085013381528a860134815260608701918d83528c608089019480865260a08a019781895260c08b0197600189528b01998a526108e96101008c019e8f611156565b8152806020522097518855600188019060018060a01b039051166bffffffffffffffffffffffff60a01b825416179055516002870155516003860155518885015560058401915115159060ff61ff0084549251151560081b1692169061ffff1916171790555160068201550191519060028210156109bf575060209561098792859260ff801983541691161790553381526002875220825490611162565b549181519034825284820152827f54487e66a4f99b14ab526adbf62917d34504308148885dbe38e6a9e6c2b399a5833393a351908152f35b634e487b7160e01b87526021845286fd5b634e487b7160e01b8952601186528389fd5b855162461bcd60e51b81526020818701526022818501527f4d7573742068617665206174206c65617374206f6e652062656e656669636961604482015261727960f01b6064820152608490fd5b855162461bcd60e51b8152602081870152601d818501527f556e6c6f636b2074696d65206d75737420626520696e206675747572650000006044820152606490fd5b855162461bcd60e51b81526020818701526010818501526f09aeae6e840c8cae0dee6d2e8408aa8960831b6044820152606490fd5b8680fd5b8382863461012a578260031936011261012a57602435823580151580610b7f575b610ad490610fb0565b808352602093838552610af260ff6005888720015460081c16610ff3565b818452838552610b1160018060a01b0360018887200154163314611035565b81845283855260068685200154831015610b4c5750908291859352600184528282209082528352209060018254920154908351928352820152f35b855162461bcd60e51b8152908101859052600d60248201526c092dcecc2d8d2c840d2dcc8caf609b1b6044820152606490fd5b508354811115610acb565b5050503461012d57602090602060031936011261014e576001600160a01b03610bb1610f0d565b168352600260205280832092815180936020865492838152019583526020832092905b828210610bec57610794868661078a828b03836110bc565b835487529586019560019384019390910190610bd4565b5090503461014e57602036600319011261014e5780610c4f60ff600585606097610c3c610c549735968715159081610c68575b50610fb0565b8581528060205220015460081c16610ff3565b611131565b919290815193151584526020840152820152f35b90505487111538610c36565b5050503461012d578160031936011261012d57602090516301e133808152f35b5083833461012d5760c036600319011261012d578235906024356084359167ffffffffffffffff92838111610ed657610cd09036908801610eda565b939060a435828111610ed257610ce99036908a01610eda565b9187151580610ec7575b610cfc90610fb0565b878952602096898852610d1a60ff6005888d20015460081c16610ff3565b888a52898852610d3960018060a01b036001888d200154163314611035565b888a528988526006868b200154871015610e8457888a5260018852858a20878b5288526002868b200154610e415791610d85610d7d610d8d93610d959536916110fa565b60443561119c565b9336916110fa565b60643561119c565b835190926060820190811182821017610e2e57610e2692859492610e1f927fcda56a00bbd73f338b2e5f2f7c158fad044576ca3c940f68cc3eb00d37ff3c0a9998975281815260028a8c888b85019188835281860193818552815260018d528181208c82528d52209351845551600184015551910155610e1530826113d3565b610e1f30846113d3565b33906113d3565b51908152a280f35b634e487b7160e01b895260418a52602489fd5b855162461bcd60e51b8152808c01899052601960248201527f42656e656669636961727920616c7265616479206164646564000000000000006044820152606490fd5b855162461bcd60e51b8152808c01899052601960248201527f496e76616c69642062656e656669636961727920696e646578000000000000006044820152606490fd5b508954881115610cf3565b8780fd5b8580fd5b9181601f84011215610f085782359167ffffffffffffffff8311610f085760208381860195010111610f0857565b600080fd5b600435906001600160a01b0382168203610f0857565b602090602060408183019282815285518094520193019160005b828110610f4b575050505090565b835185529381019392810192600101610f3d565b906002821015610f6c5752565b634e487b7160e01b600052602160045260246000fd5b8054821015610f9a5760005260206000200190600090565b634e487b7160e01b600052603260045260246000fd5b15610fb757565b60405162461bcd60e51b815260206004820152601460248201527315985d5b1d08191bd95cc81b9bdd08195e1a5cdd60621b6044820152606490fd5b15610ffa57565b60405162461bcd60e51b81526020600482015260136024820152725661756c74206973206e6f742061637469766560681b6044820152606490fd5b1561103c57565b60405162461bcd60e51b81526020600482015260116024820152702737ba103b30bab63a1031b932b0ba37b960791b6044820152606490fd5b610120810190811067ffffffffffffffff82111761109257604052565b634e487b7160e01b600052604160045260246000fd5b67ffffffffffffffff811161109257604052565b90601f8019910116810190811067ffffffffffffffff82111761109257604052565b67ffffffffffffffff811161109257601f01601f191660200190565b929192611106826110de565b9161111460405193846110bc565b829481845281830111610f08578281602093846000960137010152565b61113a90611301565b929190501561114c5760019190600090565b6000915081908190565b6002821015610f6c5752565b8054680100000000000000008110156110925761118491600182018155610f82565b819291549060031b91821b91600019901b1916179055565b7f9e7b61f58c47dc699ac88507c4f5bb9f121c03808c5676a8078fe583e46497015460405163196d0b9b60e01b815260048101929092523360248301526080604483015282516084830181905291926001600160a01b039291831691849160005b8281106112e95750509181600060a4828683836020998401015260066064830152601f801991011681010301925af19182156112a9576000926112b5575b507f9e7b61f58c47dc699ac88507c4f5bb9f121c03808c5676a8078fe583e46497005416803b15610f0857604051630f8e573b60e21b815260048101839052336024820152906000908290604490829084905af180156112a95761129d575090565b6112a6906110a8565b90565b6040513d6000823e3d90fd5b9091506020813d6020116112e1575b816112d1602093836110bc565b81010312610f085751903861123b565b3d91506112c4565b602082820181015160a48984010152879450016111fd565b61131360009180835282602052611324565b1561131e5780918190565b80918190565b6000908152806020526040812060ff6005820154166113b3576003810154908142106113ce576007015460ff1660028110156113ba57156113b357420342811161139f576301e133809004906001820180921161138b575060048111156112a65750600490565b634e487b7160e01b81526011600452602490fd5b634e487b7160e01b82526011600452602482fd5b5050600490565b634e487b7160e01b83526021600452602483fd5b505090565b7f9e7b61f58c47dc699ac88507c4f5bb9f121c03808c5676a8078fe583e4649700546001600160a01b031691823b15610f0857604051635ca4b5b160e11b815260048101929092526001600160a01b03166024820152906000908290604490829084905af180156112a9576114455750565b61144e906110a8565b56fea2646970667358221220b6f790fed33178fda06d0f114856a371650c53de7082444b12a3dd5be784899064736f6c63430008180033",
  "linkReferences": {},
  "deployedLinkReferences": {}
}